:020000040800F2
:10000000B804002001010008DD0F00082D0C0008D5
:10001000990E0008C1040008CD1A00080000000075
:10002000000000000000000000000000F9110008BE
:10003000850700080000000065100008E1130008B3
:100040001B0100081B0100081B0100081B01000820
:100050001B0100081B0100081B0100081B01000810
:100060001B0100081B0100081B0100081B01000800
:100070001B0100081B0100081B0100081B010008F0
:100080001B0100081B0100081B0100081B010008E0
:100090001B0100081B0100081B01000825080008BF
:1000A0001B0100081B0100081B0100081B010008C0
:1000B0001B0100081B0100081B0100081B010008B0
:1000C0001B0100081B0100081B0100081B010008A0
:1000D0001B010008651700081B0100081B01000830
:1000E000AD0700081B0100081B010008DFF80CD059
:1000F00000F02EF800480047891C0008B8040020D2
:100100000648804706480047FEE7FEE7FEE7FEE7B1
:10011000FEE7FEE7FEE7FEE7FEE7FEE7F113000875
:10012000ED00000830B50B460146002020220124D6
:1001300009E021FA02F59D4205D303FA02F5491BB5
:1001400004FA02F52844151EA2F10102F1DC30BDCB
:10015000064C074D06E0E06840F0010394E8070014
:1001600098471034AC42F6D3FFF7C4FF0C1E0008CA
:100170002C1E00080EB56A4601A902A800F080FDF9
:100180003748007830B101282ED0022845D0032806
:1001900060D151E033480088192802DB9DF8040043
:1001A00058B100F013FF01202D4908702E48006857
:1001B00000F5C8702D49086015E09DF8080028B1C9
:1001C0004FF44861484200F0F1FE0CE09DF8000059
:1001D00020B12749484200F0E9FE04E041F29411C1
:1001E000084600F0E3FE39E02249084600F0DEFE52
:1001F0001D4800681D49096888420DD39DF8080014
:1002000008B1032000E00220154908701648006874
:1002100000F5FA701549086020E04FF44861484243
:1002200000F0C4FE1048006810490968884202D3F3
:1002300000200B49087011E00D49484200F0B6FE5D
:100240000948006809490968884202D30020044926
:10025000087003E000200249087000BF00BF0EBD17
:1002600020000020040000200000002024000020C6
:1002700080F3FFFF6CEEFFFF01460D4800780D4A4A
:100280001278904201D1002070470B48084A12783A
:10029000805C0870064A1278501CC21700EBD262CC
:1002A0005211A0EB4212024B1A700120ECE7000041
:1002B00031000020300000209400002010B508A07C
:1002C00001F006FC11A001F003FC1FA001F000FCEE
:1002D00026A001F0FDFB33A001F0FAFB10BD0000E9
:1002E0000D0A3D3D3D3D3D2053544D333220E699AE
:1002F000BAE883BDE5B08FE8BDA620E5B0B1E7BBA5
:10030000AA203D3D3D3D3D0D0A000000E6A8A1E5C7
:10031000BC8F3A20313DE981A5E68EA720323DE52C
:10032000BEAAE8BFB920333DE981BFE99A9C2034D9
:100330003DE4BCA0E6849FE599A820303DE5819C82
:10034000E6ADA20D0A000000E981A5E68EA73A20DD
:1003500046E5898D2042E5908E204CE5B7A62052D7
:10036000E58FB32053E5819C0D0A00002B2F2D2033
:100370003D20E58AA0E9809F2FE5878FE9809F20B7
:100380002020443DE6B58BE8B79D20563DE6B58B71
:10039000E9809F20543DE4BCA0E6849FE599A80D28
:1003A0000A0000003D3D3D3D3D3D3D3D3D3D3D3D67
:1003B0003D3D3D3D3D3D3D3D3D3D3D3D3D3D3D3D6D
:1003C0003D3D0D0A0000000001460C4B1B78581CF7
:1003D000C31700EBD3635B11A0EB4313DAB20848F9
:1003E0000068084B186008480078824205D007482A
:1003F000024B1B78C1540148027070473000002046
:100400000000002034000020310000209400002073
:1004100010B586B00446012144F2040000F034FE19
:1004200005A800F0FBFB4FF40070ADF81400182095
:100430008DF8170003208DF8160005A91E4800F05E
:1004400055FB4FF48060ADF8140004208DF81700C0
:1004500005A9194800F04AFB01A801F072FA0194BD
:100460000020ADF80800ADF80A00ADF80C000C2033
:10047000ADF80E000020ADF8100001A90F4801F002
:10048000EBF9012240F225510C4801F0C0F901219D
:100490000A4801F079F925208DF8000003208DF835
:1004A000010000208DF8020001208DF8030068464D
:1004B00000F096FD06B010BD000801400038014074
:1004C00000BFFEE72DE9FE4F80488149097830F8EA
:1004D000110004B204EB4400052190FBF1F005B2D9
:1004E000ECE09DF8080044286BD012DC322833D0B1
:1004F00008DC2B2847D02D2854D030281AD031289A
:100500007ED120E033282ED0342833D04228F7D1B2
:1005100099E0522875D006DC462873D0482872D05E
:100520004C28EDD190E053286ED054286DD0562839
:10053000E6D150E000206749087000F047FD66A052
:1005400001F0C6FAB9E001206249087000F03EFDF2
:1005500065A001F0BDFAB0E002205E49087068A015
:1005600001F0B6FAA9E003205A49087068A001F02A
:10057000AFFAA2E004205749087000F027FD68A0F8
:1005800001F0A6FA99E052480078032804DA5048AE
:100590000078401C4E4908704D48017866A001F073
:1005A00097FA8AE04A480078012804DD4848007834
:1005B000401E47490870464801785FA001F088FA5C
:1005C0007BE001F0E9F95F490880084601885EA0F8
:1005D00001F07EFA71E000F09FF90646012000F07C
:1005E000A1F900EB8010142190FBF1F00A2190FB9F
:1005F000F1F7002000F096F900EB8010142105E0DF
:100600005AE022E01EE01AE020E015E090FBF1F055
:100610000A2190FBF1F8012000F084F981460020C6
:1006200000F080F9824643464A4651464AA0CDE949
:10063000007601F04DFA40E000F0E0FD3DE0FFF70C
:100640003DFE3AE000BF00BF00BF00BF2148007878
:1006500001282AD19DF808004C2816D004DC422835
:100660000CD0462820D104E0522814D053281BD1A6
:1006700017E02146204600F099FC15E0604201B2E7
:10068000604200B200F092FC0EE02146684200B2E7
:1006900000F08CFC08E0684201B2204600F086FCC5
:1006A00002E000F093FC00BF05E09DF8080053282D
:1006B00001D100F08BFC00E000BF00BF02A8FFF7F3
:1006C000DBFD00287FF40DAFBDE8FE8FFC1D0008A8
:1006D00007000020060000204D4F44453A205354A7
:1006E0004F500D0A000000004D4F44453A20524340
:1006F0002028462F422F4C2F522F53290D0A00003D
:100700004D4F44453A204C494E450D0A000000002B
:100710004D4F44453A2041564F49440D0A000000D0
:100720004D4F44453A2053454E534F5220283330C5
:10073000306D73290D0A0000474541522025640D94
:100740000A0000000400002044495354202564207E
:10075000636D0D0A00000000535044204C256420B6
:10076000522564207070732028256420256420633E
:100770006D2F7329207C20445354202564206D6DF7
:100780000D0A0000704708B50AE00821009100E05A
:1007900000BFBDF800104A1E92B200920029F7D1A6
:1007A000011EA0F1010290B2EFD108BD10B54FF4C7
:1007B000805000F04BF840B119480068401C1849BF
:1007C00008604FF4805000F03BF84FF4005000F008
:1007D0003DF840B112484068401C114948604FF450
:1007E000005000F02DF84FF4804000F02FF840B199
:1007F0000B488068401C0A4988604FF4804000F034
:100800001FF84FF4004000F021F840B10448C068E0
:10081000401C0349C8604FF4004000F011F810BDBF
:100820006400002010B54FF4007000F00FF828B1FC
:1008300001F094F84FF4007000F002F810BD0000D1
:10084000014908607047000014040140014600207F
:100850000022074B1B6803EA0102054B14331B6897
:100860000B4013B10AB1012000E0002070470000E6
:1008700000040140002123498279002A3AD00A4627
:10088000126803689A430B461A600A1D12680368CF
:100890009A430B1D1A60027911440A6803681A43CF
:1008A0000A60184A0832126803689A43154B0833E5
:1008B0001A601A1D126803689A43124B0C331A60AF
:1008C0004279102A0ED11A1F126803681A430D4B81
:1008D00008331A601A1D126803681A43094B0C3357
:1008E0001A600DE00749427911440A6803681A4307
:1008F0000A6005E0027911440A6803689A430A60B5
:1009000070470000000401400021016001710C21CA
:1009100041710021817170470148006870470000F3
:1009200014000020014611B90248006870470248CF
:100930000068FBE70C00002010000020014603299E
:1009400001DD00207047024850F82100FAE700005E
:10095000640000201FB50121092000F095FB03A8C9
:1009600000F05CF948208DF80F0002208DF80E0091
:10097000002410E01D4830F81400ADF80C0003A965
:100980001B4800F0B3F804F10C00C1B2012000F0E4
:100990008DF8601CC4B2042CECDB01A8FFF7B4FF97
:1009A00000208DF8080008208DF8090001208DF83E
:1009B0000A00002407E004F58050019001A8FFF729
:1009C00059FF601CC4B2042CF5DB28208DF8000010
:1009D00002208DF8010000208DF8020001208DF822
:1009E0000300684600F0FCFA1FBD0000041E00086A
:1009F000000C01407FB5002415E0264951F8240081
:100A0000254951F82410411A4DF82410224941F883
:100A100024005DF8241001EB810149001F4A42F8CF
:100A20002410601CC4B2042CE7DB1C4909681B4A73
:100A30009268881800EBD0714910194A1160174963
:100A40004968164AD268881800EBD0714910154AD7
:100A50001160002000F022FA1149096800FB01F53D
:100A6000012000F01BFA0F49096800FB01F6A819E4
:100A700000EBD071491001EB8111142291FBF2F1CE
:100A80000A2291FBF2F1084A12681144064A1160E9
:100A90007FBD00006400002074000020840000205E
:100AA0000C000020100000201400002030B50022AF
:100AB0008B071C0F0F2303FA04F20B4B8C1053F817
:100AC00024309343084C8D1044F8253023468C1075
:100AD00053F824308C07240F00FA04F42343024C0B
:100AE0008D1044F8253030BD080001402DE9F0415B
:100AF000024600250026002000230024002791F84C
:100B000003C00CF00F0591F803C00CF0100CBCF101
:100B1000000F03D091F802C04CEA050591F800C01F
:100B2000BCF1000F31D0146800202BE04FF0010C15
:100B30000CFA00F3B1F800C00CEA03069E4220D183
:100B400083004FF00F0C0CFA03F7BC4305FA03FCCB
:100B50004CEA040491F803C0BCF1280F06D14FF011
:100B6000010C0CFA00FCC2F814C00AE091F803C0B2
:100B7000BCF1480F05D14FF0010C0CFA00FCC2F893
:100B800010C0401C0828D1D31460B1F800C0BCF1DB
:100B9000FF0F34DD546800202EE000F1080C4FF008
:100BA000010808FA0CF3B1F800C00CEA03069E42F3
:100BB00021D183004FF00F0C0CFA03F7BC4305FA68
:100BC00003FC4CEA040491F803C0BCF1280F05D1E2
:100BD00000F1080C08FA0CF8C2F8148091F803C070
:100BE000BCF1480F07D100F1080C4FF0010808FADA
:100BF0000CF8C2F81080401C0828CED35460BDE821
:100C0000F0810246002093680B400BB1012000E008
:100C10000020704741617047016170474FF6FF71D6
:100C20000180022181700421C170704700BFFEE77E
:100C300008B50121042000F027FA6846FFF7EEFF0F
:100C400048208DF8030002208DF80200C001ADF8A5
:100C5000000069460948FFF749FF4FF40060ADF80E
:100C6000000069460548FFF741FF4FF48050ADF89A
:100C7000000069460148FFF739FF08BD0008014040
:100C800070B504460D4616464FF480710E48FFF7C6
:100C9000B8FF08B9012000E0002020704FF4006187
:100CA0000948FFF7AEFF08B9012000E000202870D6
:100CB0004FF480510448FFF7A4FF08B9012000E079
:100CC0000020307070BD00000008014008B501210F
:100CD000102000F0D9F96846FFF7A0FF4FF400504C
:100CE000ADF8000010208DF8030002208DF80200FE
:100CF00069460448FFF7FAFE4FF400510148FFF738
:100D00008BFF08BD0010014010B50446002C0FDD1C
:100D100001211948FFF780FF02211748FFF77AFFEA
:100D2000A1B2164800F06FFC01201549087021E0BF
:100D3000002C10DA01211048FFF76CFF02210E4849
:100D4000FFF76AFF604281B20C4800F05CFCFF20B4
:100D50000B4908700EE001210748FFF75BFF0221F5
:100D60000548FFF757FF0021044800F04CFC002025
:100D70000349087010BD0000000C01400004004051
:100D8000080000203EB500246A4601A902A800F030
:100D9000C5FC9DF8040040B39DF8080060B19DF8C3
:100DA000000048B940F6D8614FF4966000F0FEF8B4
:100DB0004C203649087037E09DF8000060B19DF87E
:100DC000080048B94FF4966140F6D86000F0EEF89C
:100DD00052202E49087027E040F6D861084600F0FE
:100DE000E5F84620294908701EE09DF8080058B132
:100DF0009DF8000040B940F6D861002000F0D6F818
:100E00004C20224908700FE09DF8000058B19DF871
:100E1000080040B9002140F6D86000F0C7F8522021
:100E20001A49087000E001245CB31948006818B939
:100E3000184800681649086016480068144909688F
:100E4000401AB0F5167F19D2104800784C2805D109
:100E500040F6D861002000F0A9F815E00B480078B2
:100E6000522805D1002140F6D86000F09FF80BE031
:100E700040F6D861084600F099F805E000F0A6F8C1
:100E800002E00020024908603EBD0000180000207A
:100E90001C0000200000002000BFFEE7014619B939
:100EA000034890F900007047024890F90000FAE703
:100EB000080000200900002000B589B001210C20A5
:100EC00000F0E2F80121022000F0CEF808A8FFF7B8
:100ED000A5FE10208DF8230003208DF8220023208A
:100EE000ADF8200008A92E48FFF700FE3020ADF82D
:100EF000200008A92B48FFF7F9FDC020ADF820001D
:100F000018208DF8230008A92648FFF7EFFD05A853
:100F100000F0D2FB0020ADF8140041F61F40ADF800
:100F200018000020ADF81A00ADF8160005A91E48FB
:100F300000F070FB01A800F05CFB6020ADF804003D
:100F40000120ADF806000020ADF80A00ADF80C0055
:100F500001A9154800F098FA0821134800F0E0FABA
:100F600001A9114800F0E6FA08210F4800F034FB0F
:100F700001210D4800F06CFA01210B4800F074FAD1
:100F800020210748FFF746FE0020FFF7BDFE0020A6
:100F900000F0F4F820210248FFF73EFE09B000BD42
:100FA000000C0140000801400004004070B50546F7
:100FB0000C46284600F0F8F90646FFF7A5FE204645
:100FC00000F0F2F9064600F0D9F870BD10B5002027
:100FD000FFF79AFE002000F0D1F810BD7047000026
:100FE00070B5002100230F22C47804B3154C246887
:100FF00004F4E064C4F5E064210AC1F10403CA40CA
:10100000447804FA03F184781440214309010E4C1A
:101010000678A155047804F01F050124AC4005783A
:101020006D11AD0005F1E025C5F8004109E0047837
:1010300004F01F050124AC40044D0678761145F8F4
:10104000264070BD0CED00E000E400E080E100E02F
:1010500002490143024A1160704700000000FA058E
:101060000CED00E07047000029B1064AD269024346
:10107000044BDA6104E0034AD2698243014BDA612E
:10108000704700000010024029B1064A92690243ED
:10109000044B9A6104E0034A92698243014B9A61CE
:1010A000704700000010024030B5002100220024EB
:1010B00000232D4D6D6805F00C0121B1042905D0E8
:1010C000082923D105E0294D056022E0274D056060
:1010D0001FE0254D6D6805F47012234D6D6805F411
:1010E0008034022505EB92421CB9214D5543056021
:1010F0000BE01D4D6D6805F400351DB11C4D5543C9
:10110000056002E0194D5543056002E0174D05608A
:1011100000BF00BF144D6D6805F0F0010909154DC1
:101120006B5C0568DD4045600F4D6D6805F4E0615E
:10113000090A104D6B5C4568DD4085600A4D6D689D
:1011400005F46051C90A0B4D6B5C4568DD40C56014
:10115000054D6D6805F44041890B074D6B5CC56812
:10116000B5FBF3F5056130BD0010024000127A00B6
:1011700000093D004C0000205C00002010B5044632
:10118000002C0FDD10211948FFF746FD20211748DC
:10119000FFF740FDA1B2164800F037FA01201549CB
:1011A000087021E0002C10DA10211048FFF732FD02
:1011B00020210E48FFF730FD604281B20C4800F05C
:1011C00024FAFF200B4908700EE010210748FFF7B2
:1011D00021FD20210548FFF71DFD0021044800F0F6
:1011E00014FA00200349087010BD000000080140F7
:1011F0000004004009000020704700002DE9FF4175
:1012000001AA02A903A800F089FA9DF804309DF80C
:1012100008209DF80C1017A000F05AFC01AA02A9A2
:1012200003A8FFF72DFD9DF804309DF808209DF8D8
:101230000C1015A000F04CFC1848018818A000F014
:1012400047FC0320FFF77AFB04460220FFF776FBFA
:1012500005460120FFF772FB06460020FFF76EFBF4
:1012600007462B463246394610A0009400F030FC69
:10127000BDE8FF81584A204C2564204D256420524A
:101280002564207C200000005A41204C2564204D1C
:10129000256420522564207C2000000004000020EA
:1012A000555320256420636D207C2000454E43204B
:1012B00025642025642025642025640D0A00000093
:1012C00010B500F001F810BD0CB5002001900090A1
:1012D0003348006840F480303149086000BF30482E
:1012E000006800F4003000900198401C01900098C4
:1012F00018B90198B0F5A06FF1D12948006800F441
:10130000003010B10120009001E000200090009812
:10131000012843D12348006840F0100021490860AB
:101320000846006820F0030008600846006840F0A6
:10133000020008601A484068194948600846406839
:1013400048600846406840F480604860084640684D
:1013500020F47C1048600846406840F4E81048607B
:101360000846006840F08070086000BF0C480068C4
:1013700000F000700028F9D00948406820F0030010
:10138000074948600846406840F00200486000BFD6
:101390000348406800F00C000828F9D10CBD00009B
:1013A000001002400020024041F69021884200DDFA
:1013B00008460949884200DA0846002804DDB0F5ED
:1013C000617F01DA4FF46170002803DA10F5617F64
:1013D00000DD02487047000070E5FFFF7CFCFFFF66
:1013E00002480068401C0149086070470000002066
:1013F00010B51348006840F0010011490860084624
:101400004068104908400E494860084600680E4987
:1014100008400B4908600846006820F480200860F6
:101420000846406820F4FE0048604FF41F008860C2
:10143000FFF746FF4FF000600449086010BD000050
:10144000001002400000FFF8FFFFF6FE08ED00E08C
:1014500021B1028842F08002028004E002884FF647
:101460007F731A400280704721B1028842F0010266
:10147000028004E002884FF6FE731A400280704733
:101480000146888C7047000070B5002400220023BC
:10149000058C4FF6FE7635400584028C8388048BDC
:1014A0004FF68F752C40B51E2C400D882C43751EB1
:1014B0002A400D892A434D882A43144DA8420BD057
:1014C000134DA84208D0134DA84205D0124DA84292
:1014D00002D0124DA84213D14FF6F7752A404D891C
:1014E0002A434FF6FB752A408D882A434FF6FF6545
:1014F0002B404FF6FF552B408D892B43CD892B4335
:1015000083800483CD888586028470BD002C0140D1
:1015100000340140004001400044014000480140C7
:101520000A460021018B4FF6F773194011430183DE
:101530007047000070B5002400220023058C4FF690
:10154000EF7635400584028C8388048B48F6FF755E
:101550002C404FF6FF452C400D884FF6FF7606EAEB
:1015600005252C434FF6DF752A400D8906EA05153F
:101570002A434D8806EA05152A43154DA84202D094
:10158000144DA8421DD14FF67F752A404D894FF664
:10159000FF7606EA05152A434FF6BF752A408D8867
:1015A00006EA05152A434FF6FF352B404FF2FF752B
:1015B0002B408D8906EA85052B43CD8906EA8505F2
:1015C0002B4383800483CD880587028470BD00008F
:1015D000002C0140003401400A460021018B4FF2EB
:1015E000FF7319404FF6FF7303EA02231943018387
:1015F00070470021018041808180C180018141814B
:101600008181C181704781867047018770478184DD
:1016100070470000002202881D4B98420ED01D4BDF
:1016200098420BD0B0F1804F08D01B4B984205D0A8
:101630001A4B984202D01A4B984204D14FF68F733E
:101640001A404B881A43174B984207D0164B9842C2
:1016500004D04FF6FF431A40CB881A4302808B8890
:1016600083850B8803850A4B98420BD0094B98421F
:1016700008D00E4B984205D00D4B984202D00D4B2E
:10168000984201D10B7A03860123838270470000C0
:10169000002C0140003401400004004000080040DC
:1016A000000C0040001000400014004000400140C9
:1016B00000440140004801404FF6FF718180002145
:1016C0000180C180418001727047000008B501218E
:1016D0000820FFF7D9FC6846FFF7A0FA48208DF8EC
:1016E000030002208DF802004020ADF8000069469A
:1016F0000948FFF7FBF98020ADF80000694606486D
:10170000FFF7F4F94FF48070ADF800006946024825
:10171000FFF7ECF908BD0000000C014070B504466D
:101720000D46164640210E48FFF76BFA012800D1FE
:1017300000E00020207080210948FFF762FA0128AC
:1017400000D100E0002028704FF480710448FFF7BA
:1017500058FA012800D100E00020307070BD000070
:10176000000C014010B540F22551064800F025F864
:1017700030B1044800F0DCF8C4B22046FEF724FE85
:1017800010BD00000038014021B1828942F40052AE
:10179000828104E082894DF6FF731A40828170478E
:1017A00002460020B1F5007F00D100BF13880B4036
:1017B0000BB1012000E00020704770B50246002404
:1017C00000230025002040F66A16B14200D100BF78
:1017D000C1F3421501F01F03012606FA03F3012DA0
:1017E00002D19689334006E0022D02D1168A334099
:1017F00001E0968A33400C12012606FA04F416889A
:10180000344013B10CB1012000E0002070BDF0B5F0
:101810000346002400260025002040F66A17B9423E
:1018200000D100BF1846C1F3421401F01F06012782
:1018300007FA06F5012C01D10C3004E0022C01D18D
:10184000103000E014301AB107682F43076002E03F
:101850000768AF430760F0BD2DE9F04786B0054645
:101860000E460024A24600BFA1460027B08900B161
:1018700000BF2F462C8A4CF6FF700440F0880443CA
:101880002C82AC894EF6F3100440B08831890843AD
:10189000718908430443AC81AC8A4FF6FF40044091
:1018A000B0890443AC8201A8FFF7FEFB1F488742C2
:1018B00002D1DDF810A001E0DDF80CA0A88900F449
:1018C000004040B10AEBCA0000EB0A103168490041
:1018D000B0FBF1F807E00AEBCA0000EB0A10316830
:1018E0008900B0FBF1F86420B8FBF0F00401200996
:1018F000642101FB1089A88900F4004040B1322026
:1019000000EBC900B0FBF1F000F00700044308E071
:10191000322000EB09106421B0FBF1F000F00F0061
:1019200004432C8106B0BDE8F08700000038014078
:1019300001468888C0F308007047C1F3080282801E
:1019400070474FF41651016000218180C1800181F0
:101950000C214181002181817047000010B54FF4B6
:1019600000710A48FFF74DF928B100214FF080407F
:10197000FFF74DFE08E04FF08040FFF781FD04497E
:10198000086001200349087010BD0000000C0140F0
:10199000280000202C00002010B512480468012106
:1019A0001148FFF739F90F20FEF7EDFE01210E482F
:1019B000FFF730F900200D49087007E0094800687A
:1019C000001B1E2802D940F2E73010BD07480078FE
:1019D0000028F3D0064800683A21B0FBF1F080B24D
:1019E000F3E7000000000020000801402C00002068
:1019F0002800002000B587B001210D20FFF744FB2F
:101A000001210846FFF730FB06A8FFF707F9012080
:101A1000ADF8180010208DF81B0002208DF81A0078
:101A200006A92848FFF762F801212648FFF7F2F8D7
:101A30004FF40070ADF8180028208DF81B0006A99F
:101A40002148FFF753F809210120FFF72FF804A8D8
:101A5000FEF75AFF4FF40070049000208DF8140038
:101A600010208DF8150001208DF8160004A8FEF74F
:101A700001FF17208DF80C0001208DF80D000020CB
:101A80008DF80E0001208DF80F0003A8FFF7A8FACB
:101A90006846FFF711FE4720ADF800004FF6FF70D3
:101AA000ADF804000020ADF80200ADF8060069466C
:101AB0004FF08040FFF7AEFD01218807FFF7D4FC0F
:101AC00007B000BD00080140000C014000BFFEE768
:101AD0000FB4054B10B503A9044A029800F018F89A
:101AE00010BC5DF814FB0000651C000860000020BD
:101AF00002E008C8121F08C1002AFAD170477047D7
:101B0000002001E001C1121F002AFBD17047000034
:101B10002DE9FF4F89B09B460446002506E02528A5
:101B20000BD05A460B999047641C6D1C20780028F6
:101B3000F5D10DB02846BDE8F08F0027B846012248
:101B4000474900E0074314F8013F203B02FA03F045
:101B50000842F7D120782E2819D114F8010F47F048
:101B600004072A280ED06FF02F022078A0F1300150
:101B700009290CD808EB880102EB410100EB0108B0
:101B8000641CF2E70A98641C50F8048B0A902078D1
:101B90000028CED0642808D0692806D075281ED029
:101BA0005A460B9990476D1C58E00A994FF00A0964
:101BB00001C90A91002802DA40422D2102E03905CC
:101BC00004D52B218DF82010012103E0F90704D062
:101BD0002021F7E78A4608AE0DE00021FAE70A99CE
:101BE0004FF00A0901C90A91F7E74946FEF79AFA48
:101BF000303106F8011D0028F7D1ADEB060000F1E9
:101C00002009780701D44FF00108C84502DDA8EB90
:101C1000090000E000208046002706E008A85A4698
:101C2000C05D0B9990476D1C7F1C5745F6DB04E0A7
:101C300030205A460B9990476D1CB8F10001A8F16D
:101C40000108F5DC05E016F8010B5A460B999047A0
:101C50006D1CB9F10001A9F10109F4DC641C65E710
:101C60000928010070B504460D46E1B20548FFF7AA
:101C700064FE00BF80210348FFF792FD0028F9D0E1
:101C8000204670BD003801400024002500260027B2
:101C9000A0464FF4A060FFF7DBF94C4800684FF412
:101CA0007A72B0FBF2F1B1F1807F00D322E021F033
:101CB0007F40401E4FF0E022506150170F22002855
:101CC0000ADA13074FEA1369414B00F00F0CACF12D
:101CD000040C03F80C9005E013074FEA136C3D4B1E
:101CE00003F800C000BF00204FF0E0229061072001
:101CF000106100BFFEF7EAFF4FF41650FEF788FBB5
:101D0000FFF7DAF8FEF726FEFFF7E0FCFEF790FF9C
:101D1000FFF770FE30A0FFF7DBFEFEF7CFFA54E0CE
:101D200032480068001B0A2815D330480468FEF7C3
:101D3000C9FB2F480078012800D100BF2C4800784B
:101D4000022802D1FFF71EF805E029480078032891
:101D500001D1FEF70FFA2648007803280AD123485C
:101D60000068801B962805D320480668FFF714FEFC
:101D7000204908801D480068401B642803D31B4885
:101D80000568FEF737FE1A48007804280DD1174879
:101D90000068C01BB0F5967F07D314480768FFF7AB
:101DA000FBFD14490880FFF729FA10480068A0EBF2
:101DB0000800B0F5FA7F08D30C48D0F800800E4830
:101DC000C06880F400500C49C860A9E738000020C2
:101DD00018ED00E000E400E00D0A536D61727443F9
:101DE0006172205265616479210D0A0000000020B3
:101DF0000600002004000020001001400000800CBC
:101E00009411A81600100020004000802C1E00082D
:101E10000000002064000000F01A0008901E000876
:101E20006400002054040000001B000800000000B3
:101E3000E7030002000000000000000000000000B6
:101E4000000000004600000000000000000000004C
:101E50000000000000000000000000000000000082
:101E60000000000000A24A04000000000000000082
:101E70000102030406070809000000000102030430
:101E80000102030406070809020406080000000016
:04000005080000ED02
:00000001FF
